:020000022000DC
:10600000989900204DBC0200074B04007DBC0200A3
:106010007DBC02007DBC02007DBC020000000000CF
:106020000000000000000000000000004DBA020067
:106030007DBC02000000000005BA0200C93804005F
:106040000DBC02006DB403000DBC02000DBC0200CB
:106050000DBC02000DBC02000DBC02000DBC020014
:106060000DBC02000DBC02000DBC02000DBC020004
:106070000DBC02000DBC02000DBC02000DBC0200F4
:106080000DBC02000DBC02000DBC02000DBC0200E4
:106090000DBC02000DBC02000DBC02000DBC0200D4
:1060A0000DBC02000DBC02000DBC02000DBC0200C4
:1060B0000DBC02000DBC02000DBC02000DBC0200B4
:1060C0000DBC02000DBC02000DBC02000DBC0200A4
:1060D0000DBC02000DBC02000DBC02000DBC020094
:1060E0000DBC02000DBC02000DBC02000DBC020084
:1060F0000DBC02000DBC02000DBC02000DBC020074
:1061000053B94AB9002908BF00281CBF4FF0FF311E
:106110004FF0FF3000F078B9ADF1080C6DE904CE16
:1061200000F006F8DDF804E0DDE9022304B0704772
:106130002DE9F047089D0E4604468E46002B4CD1B3
:106140008A42944667D9B2FA82F252B101FA02F356
:10615000C2F1200120FA01F10CFA02FC41EA030E1F
:1061600094404FEA1C48210CBEFBF8F61FFA8CF74E
:1061700008FB16E341EA034306FB07F199420AD9FB
:106180001CEB030306F1FF3080F01E81994240F2C0
:106190001B81023E63445B1AA4B2B3FBF8F008FB18
:1061A000103344EA034400FB07F7A7420AD91CEB6B
:1061B000040400F1FF3380F00981A74240F2068118
:1061C00064440238E41B40EA064000211DB1D4407B
:1061D0000023C5E90043BDE8F0878B4208D9002DB4
:1061E00000F0EF800021C5E900060846BDE8F08711
:1061F000B3FA83F1002949D1B34202D3824200F2BB
:10620000FF80841A66EB030301209E46002DE2D036
:10621000C5E9004EDFE702B9FFDEB2FA82F2002ADA
:1062200040F08E80A1EB0C064FEA1C471FFA8CF35E
:106230000121B6FBF7FE07FB1E60260C46EA00466E
:1062400003FB0EF0B04208D91CEB06060EF1FF3836
:1062500002D2B04200F2D080C646361AA4B2B6FBD3
:10626000F7F007FB106644EA064400FB03F3A34281
:1062700008D91CEB040400F1FF3602D2A34200F25D
:10628000B8803046E41A40EA0E409FE7C1F120078B
:1062900022FA07F48B40234306FA01FC26FA07F49E
:1062A00020FA07F646EA0C064FEA134900FA01F80D
:1062B000B4FBF9FE300C1FFA83FC09FB1E4440EAD4
:1062C00004440EFB0CF0A04202FA01F20AD91C1998
:1062D0000EF1FF3A80F08B80A04240F28880AEF150
:1062E000020E1C44241AB6B2B4FBF9F009FB1044A8
:1062F00046EA044400FB0CFCA44507D91C1900F134
:10630000FF3670D2A4456ED902381C4440EA0E40D4
:10631000A0FB02E6A4EB0C04B442F446B14659D308
:1063200056D0002D6ED0B8EB0C0364EB0904CB40C3
:1063300004FA07F71F43CC40C5E9007400214AE77F
:10634000C2F1200024FA00F10CFA02FC06FA02F372
:1063500026FA00F04FEA1C4741EA0306B0FBF7F1CA
:106360001FFA8CF307FB110E300C40EA0E4001FBC4
:1063700003FE864504FA02F408D91CEB000001F183
:10638000FF3832D2864530D902396044A0EB0E0086
:10639000B6B2B0FBF7FE07FB1E0046EA00460EFB56
:1063A00003F0B04209D91CEB06060EF1FF3818D2F3
:1063B000B04216D9AEF1020E6644361A4EEA0141D9
:1063C00037E72946284606E70646E4E61846F9E692
:1063D000F045A6D2BEEB020C66EB030301389946EA
:1063E0009FE7C646E9E7304690E74146CEE7D64606
:1063F00078E76444023845E7AEF1020E66442CE7C4
:10640000084603E72946E6E6704700BF00000000A3
:1064100073B53E4DD5F81C31996811F001011FD1BB
:1064200001AA40F6034006F06BFC044600286AD13E
:10643000019B9B681B7883B905F1940318461EF0F5
:1064400057FEBFF35B8F00F0050053E8002F43E8D1
:1064500000010029F9D1BFF35B8F019817F06EFEA0
:1064600001AA002141F2030006F04AFC044600287C
:1064700049D1019B26489968082201311EF076FC1B
:10648000019817F05BFE214601AA41F2010006F0D7
:1064900037FC0446002836D1019883685A7885F87D
:1064A0003420D9789A7842EA0122EA861A7985F866
:1064B0003520197ADA7942EA01222A875A799B79BA
:1064C00042EA03236B8717F039FE214601AA41F205
:1064D000020006F015FC0446A8B9019B0D48996816
:1064E000402201311EF042FC95F86630019843F0DD
:1064F000060385F8663017F021FE95F840305A06FD
:106500000AD46FF01204204602B070BD00000020D3
:106510003C00002044000020214601AA42F2030072
:1065200006F0EEFB04460028EDD1019BB2489968C5
:10653000082201311EF01AFC019817F0FFFD2146D8
:1065400001AA42F2020006F0DBFB04460028DAD181
:10655000019B9B68B3F80120A5F8C42091B221B13A
:10656000DA78A648114622F0CAF8019817F0E6FD3D
:1065700095F8406016F0200600F01A8195F860301A
:106580001B0712D501AA002142F21C0006F0B8FB3D
:1065900004460028B7D101988368D3F80120D3F8C6
:1065A0000530C5E9282317F0C9FD95F898309E06F7
:1065B00023D50DF1020168461EF02FFF0446002886
:1065C000A1D1042142F2240006F03EFB0646002839
:1065D00000F0F5800421083021F058FABDF80030B1
:1065E0000380BDF8023043802246314642F2240047
:1065F00006F086FB0446002885D195F898305C06A5
:1066000010D501AA002142F22A0006F079FB0446C7
:1066100000287FF478AF019883685B7885F8E030D4
:1066200017F08CFD082142F2010006F00DFB044634
:10663000002800F0C4800821084421F027FA95F8CA
:10664000981011F0400F024640F2022308BF0323C6
:1066500088074CBF43F02C0043F00C008B0695F8E4
:10666000993048BF40F0400013F0090F95F86630AC
:1066700018BF40F4006003F00603CE0748BF40F0A7
:106680001000062B08BF40F4C07000211EF0F1FD81
:106690002146002242F2010006F032FB04460028A7
:1066A0007FF431AF95F8403098061ED4B5F8C41089
:1066B000D9B901AA41F2050006F022FB04460028E0
:1066C0007FF421AFB5F8C43063B9019B9B685A7859
:1066D000997842EA0122A5F8C4209A8847481146D1
:1066E00022F00DF8019817F029FD082140F601402D
:1066F00006F0AAFA0446002861D00821084421F0D7
:10670000C5F995F89830D90702466DD538A1D1E979
:1067100000011EF0AEFD2146002240F6014006F0C9
:10672000EFFA044600287FF4EEAE014601AA4FF6C8
:10673000014006F0E5FA044648BB019817F0FEFC5C
:10674000214601AA4FF6024006F0DAFA0446F0B9F3
:10675000019B2B489968022201311EF007FB01982A
:1067600017F0ECFC95F885305B0710D501AA21469F
:106770004FF6034006F0C4FA48B9019B21489968D6
:10678000012211441EF0F2FA019817F0D7FC07F02D
:1067900099FF044600287FF4B6AEEB79002B3FF456
:1067A000B2AE042118481EF0ACFC06F0C9FEAAE601
:1067B000022140F66D4006F047FA044610B96FF02A
:1067C0003604A0E60221083021F060F901230370AD
:1067D00046702146324640F66D4006F091FA044676
:1067E00000283FF4CBAE8EE608484FF0005190E70A
:1067F000908800020080002098000020C80000203F
:1068000085000020840000209400002010880002F1
:106810002DE9F041D0E90B35866A5C193034A64287
:106820008846174618D81C4DA3FB050118A3D3E9C9
:106830000023FFF765FCA41B20F07F40C8F8000090
:1068400013A3D3E90023A4FB0501FFF759FC20F0B3
:106850007F403860BDE8F0810F4C0DA3D3E90023E1
:10686000A6FB0401FFF74CFC05F1300120F07F404E
:10687000C8F8000006A3D3E90023A1FB0401FFF739
:106880003FFC20F07F403860BDE8F081AFF300802E
:106890008D49FD1A0700000000CA9A3B0000000065
:1068A0002DE9F04FAD4C94F84E608FB006F0010624
:1068B000002800F04A81B6BB94F82D2094F83930B6
:1068C00094F8290004EB820204EB8303FF2100F01B
:1068D0000300D2F83080D3F83C9084F82A1014F0EA
:1068E000D7F994F84E00470700F11B81B8F1000F6B
:1068F00011D09A4841460FF0CBF898F800305D0669
:1069000005D506210AF086FD002800F0E3819348B2
:1069100049460FF0BDF898F8003013F00E0F40F024
:10692000D380636A23B10C2630460FB0BDE8F08FE8
:106930000EF016FA8246002800F0DB810EF01CFAF9
:106940008346002800F0DA810FF0FAFD05460028A2
:1069500000F0D181806F4FF6FF73AB8505F11C030A
:10696000002800F0C28105F16C0205F168010B936B
:106970000AF05CFDB5F8642095F84010C5F83CA11C
:1069800022F4EF6222F0070242F4887242F0010220
:10699000A5F8642095F83D2002F03F0262F07F02E6
:1069A00085F83D2095F8322122F0030285F8322146
:1069B00095F87E2022F01F0285F87E20684A2A661C
:1069C000684AC5F8282100274FF01B1267F3000121
:1069D000EA65062285F84010C5E9137785F83F700F
:1069E0006F866F636F65A5F8C870A5F8CC70C5F8A1
:1069F0000C71A5F81071A5F82471C5F82C71A5F8D3
:106A0000307185F83B71AF67A5F87C70A5F85C71B3
:106A1000A5F8C42095F85E21A5F87C7122F0070244
:106A200085F85E21B5F8DC20C5F8E47002F0FC02C0
:106A3000A5F8DC2095F87E21A5F8E87067F304122C
:106A400085F87E2195F8A62185F8EA7067F3C302E0
:106A500085F8A621A5F8A471A5F8B07110F0D4F8B6
:106A6000A5F8D60010F0D6F8D5F8B4113E4AA5F82E
:106A7000D8000A40C5F8B42110F0D2F895F8B82132
:106A800060F3020285F8B82110F0D0F80B9B636226
:106A9000C4E911AB95F8B831C5F8BC7160F3C50312
:106AA00085F8B83195F82030ED6167F30003C5E94A
:106AB0007277C5E97077C5E9057785F8203015F05C
:106AC0000FF9002840F0088194F828300121C3F321
:106AD00042030DF133008DF833300AF029FE00280F
:106AE00000F09E8098F8003003F00F03022B00F1B5
:106AF000FF313BD0012B00F0F38099F801001030FA
:106B0000C000002B40F0DE8098F80130103300EB1D
:106B1000C300DB0000F54D7003F59A7303FB010120
:106B20002FE0C0F3C000324604F14F0114F01CFA0C
:106B3000FF2884F82A003FF4D9AE304614F0C2F89A
:106B4000B8F1000F7FF4D5AEE5E6002E3FF4EBAED2
:106B50000FB0BDE8F04F0EF067BD00BF283F00202A
:106B6000480148017F4101000000FFF698F801301C
:106B70001033DB0003FB00F000F5AA70642303FB75
:106B8000010194F820306248E461002565F30003B8
:106B900084F8203031232360A1FB00015AA3D3E9FC
:106BA0000023C4E90555C4E90155FFF7A9FAB4F873
:106BB0004C90E0600BF0C8FE0746B9F1000F08D119
:106BC00098F8005005F00F05A5F10105B5FA85F517
:106BD0006D0994F82800E36865F3000010F00105E2
:106BE00084F8280023D000204A4ADFF82C9104932F
:106BF00002250DF13408019305920321CDE902002D
:106C000006943B460090CDF82080CDF81C902A4693
:106C10000D950BF0CDFD41460EF058F900283CD003
:106C2000636A002B3FF47FAE0EF0BCFC7BE63B4A70
:106C30003B48049303F24713A9FB00010694029515
:106C40001360912303FB0911334B0793314B0593D9
:106C50004FF6FF7309924FF0020903930DF13408C8
:106C600029A3D3E90023CDF83490CDF82080FFF795
:106C700047FA3B46CDE900504A46284603210BF02F
:106C800041FD41460EF022F90028C9D194F84E305A
:106C900043F0010384F84E3046E6224A05924AF258
:106CA000D8320092CDE90300CDE90100CDF81C9067
:106CB000CDF8208006943B46012203210D950BF070
:106CC00077FDDEE7062B3FF41FAF4FF4DA734FF486
:106CD0001B7023E7122627E60EF064FC032623E64A
:106CE0004FF4F2734FF47F7018E705F17000A86756
:106CF00039E6072618E658460EF044F850460EF0DE
:106D000035F8072610E600BF8D49FD1A0700000080
:106D100000CA9A3B855303001D400300803F0020BA
:106D2000002AE784695203002DE9F04FC44D2B6817
:106D30008BB004460F469046002B00F01282638E03
:106D4000E68E1E4494F812313E4413F00703B6B2A7
:106D500040F09F81B4F8EC90A6EB09021FFA82FB89
:106D6000120400F1F98194F93D20002AC0F2348127
:106D700094F8E83084F8E93094F87C2194F87D3177
:106D800094F8101184F81111934206D094F87E31D2
:106D900003F00703052B00F03A822B68A34204BFDF
:106DA00000232B60D4F80C51002D00F0638128687B
:106DB000002800F05F81B4F81431B4F82EC04268A6
:106DC000C4F80C216345B4F81621B4F8181100F08A
:106DD0001781B4F82CC0EB8315232B710023A5F881
:106DE00006C02A8469842B7729460DF0D1FF0DF067
:106DF000D9FF2368002BC0F2F780E08DB4F814515E
:106E000010FB0BF080B2B0FBF5F115FB01F39BB268
:106E100098421FFA81FAC0F0CE8005FB110140F2C2
:106E2000E243884889B203FB01F1A1FB000182A380
:106E3000D3E90023FFF764F9A8EB0008618E94F909
:106E40003D30A9EB0609D1440F444F446786002B1F
:106E500040F2E24707FB05F6C0F285817A4A7B499A
:106E60007B4840F6F6131BF0A3FB404080F31188EB
:106E70004FF0030002DF0027B346764AB4F818311A
:106E80007548B4F8161121863244B2FBF6F2A4F824
:106E9000CA2042F2107202FB03633044013BB0FB94
:106EA000F6F0B3FBF6F6B4F81431E38583B2881D2F
:106EB0008342A4F8C660A4F8D23002DD5B1A063B18
:106EC0009BB2A4F8CE3094F812311B0744BF0023C4
:106ED000A4F8C8300221012016F07AFE0022022117
:106EE000814601200AF0F2FA5C494FF4EA7220462A
:106EF0000AF07CFA00F1030A5FFA8AFA584B009410
:106F00005246012100200BF0DDFC30F002030CD0D2
:106F10004D4A54494E4840F625231BF049FB40405A
:106F200080F311884FF0030002DF464EABFB066B87
:106F300041A3D3E9002330465946FFF7E1F808940E
:106F400020F07F4506944848E3680493A5FB0001C0
:106F5000072303FB0511454B0793454B0593301A57
:106F60004FF6FE736BEB010103934FF47A7200232B
:106F7000FFF7C6F84346CDE901500097524601217C
:106F800000200BF015FC30F002030CD02E4A3549DE
:106F90002F4840F63F231BF00BFB404080F3118845
:106FA0004FF0030002DFB9F1000F40F0278148469F
:106FB0000BB0BDE8F08F1B1A224940F2E24003FB00
:106FC00000F0A0FB01011CA3D3E90023FFF798F810
:106FD00020F07F40804431E794F8DD20002A3FF420
:106FE000C7AE84F8DD30C7E6D4E9012123F00043C1
:106FF00091422CBF884490442360A8EB0308FCE630
:10700000B4F830C094457FF4E4AE40F2E24C0CFB9F
:1070100003FE42F2107C0CFB01EC0CF1FF3CBCFBCC
:10702000FEFCB4F8C6E01FFA8CFCE6457FF4D1AE56
:1070300001232B71D8E600BF8D49FD1A070000001F
:10704000C448002000CA9A3B149C040030990400F4
:10705000D0980400FF5962027FC3C901A03F0020FD
:10706000995D0300F49C04008D49FD1A415D030005
:1070700079A10300764A7749774840F67A131BF0E6
:1070800097FA404080F311884FF0030002DF286830
:1070900091E601200DF08CFE0746002800F0C98023
:1070A0006E480AF06DF90546002800F0C2800DF028
:1070B0009DFE2B793A68D4F80C11516043F003031C
:1070C000C4F80C7100212B710C236B71E97194F8D9
:1070D00020312B72238ED4F81C211E44604BA3FB5D
:1070E0000232B4F81431A5F80B30920AB4F8163114
:1070F000A5F80920A5F80D3094F81221B4F818313C
:10710000A5F80F300636D4F8BC31B6B261F30202EE
:10711000A4F8EC6084F81221A5F81160002B7CD053
:1071200094F85E21900778D494F8B721D10774D4ED
:10713000D4F8C821934204BF1A68C4F8C821D4F80F
:10714000C021002A6CD11A682A601D602B68C4E92E
:1071500070550BB9C4F8CC516FF043000BB0BDE8CB
:10716000F08F2860EBE5626CE36C02FB1B33E36499
:1071700014F008FE054694F8DC00C0F3820014F019
:1071800005FE054406FB05F5364B94F8202105F570
:10719000742505F23F25A3FB0535AD0C07FB02F274
:1071A000E36C626505FB0AF072080344963A934269
:1071B00028BF13466564A6EB050B2B4DC4E91223CB
:1071C0000023C4F8E430A0FB05011FA3D3E900238A
:1071D000FEF796FF2249A8EB0008D4F81C01A1FB9A
:1071E0000030800A07FB00F017A3D3E90023A0FBBF
:1071F0000501FEF785FF20F07F473EE6012210469D
:1072000002210AF063F900200BB0BDE8F08F0023E3
:1072100084F87D21A4F8CC30BFE5D4F8C0216AB150
:10722000D4F8C4311A682A601D602B68C4F8C451B0
:107230008FE76FF036000BB0BDE8F08F2B60C4E92C
:107240006F55C4F8C45184E78D49FD1A070000004A
:10725000149C0400E09C0400D098040048490020DD
:107260005917B7D183DE1B4300CA9A3B00000000C8
:107270002DE9F04F95B01D460B902846136850F845
:107280000C8B1F680C4692462E31032205F108092B
:107290001DF06CFD05F11C06042204F12A0148468C
:1072A0001DF064FD052204F13A0130461DF05EFD3B
:1072B000304605210AF03CFA95F8213000F03F00F5
:1072C00060F30503012885F821300AD994F83F209E
:1072D00002F01F03053BC2F304010B2B85F82210BB
:1072E00002D915B0BDE8F08FDAF8003000219960BE
:1072F000A68E6E8294F8371094F8363043EA012354
:10730000AB8298F8DC30520962F38403628E88F80D
:10731000DC300D9214F036FD0C9098F8DC00C0F3D0
:10732000820014F033FD0C9BC34AA98A40F2E24B61
:10733000B6B20BFB06F6184406FB00F0BF4B00F597
:10734000742000F23F20A3FB003094F831300BFB97
:1073500003F3EB637308800C963BA862EB62238F08
:10736000ADF83A3018463244B54BB2FBF6F2A8F805
:10737000CA2082B242F2107000FB02623344013A2A
:10738000881DB2FBF6F2B3FBF6F3A8F8C6209AB25A
:107390008242A8F8D22002DD521A063A92B2494639
:1073A000A8F8CE2008F1E00004221DF0DFFC237FC6
:1073B00004F11E0BC3F380135946062212A8119341
:1073C0001DF0D4FC237F4FF48072A28397F82A002B
:1073D0009AF81290C3F340120F920C9213F05AFFD6
:1073E0000146062204F12B00002940F0EC801DF03C
:1073F000E8FC04F11F02B9F1FF0F04F1250310921C
:1074000000F0EA8059464846109313F0D1F9109BDA
:107410001846A37F023312A9A37706221DF0A6FC0B
:1074200098F8DC306A8A6286AA8AA286C3F382034D
:10743000BDF83A2084F83830E28640460FF08CF8E8
:1074400021462882E080DAF804400B980DF0A0FC79
:107450002B8AE380182323710C9B2068002B00F0FB
:10746000B78095F821302A8943F0400385F8213010
:107470006B8953406B840123237721460DF088FCF0
:107480000DF090FC95F84900012100F0070014F080
:107490007FFB83466B484FF0000931230BF25241CA
:1074A000C8F80030C8E9019961A3D3E90023A1FB22
:1074B0000001FEF725FEAB6ADAF80C40F61A0D9BC8
:1074C00040F2E24101FB034420F07F4004F28634A5
:1074D000A4EB0B034A460221C8F80C0001200B93D1
:1074E00009F0F4FF38460EF05BFA821C564B009709
:1074F000D2B2484601210BF0E5F9012800F0828064
:1075000097F82830DB0775D440460FF025F8DFF8F0
:107510003491A6FB094646A3D3E90023054631462C
:107520002046FEF7EDFDDAF80830CDF81880A3F11B
:10753000310A464B0793464B05934FF4B6730893B5
:10754000D8F80C3020F07F4742484FF0000BCDE9CF
:1075500003B3A7FB00010723201A03FB071166EB07
:1075600001014FF47A720023FEF7CAFD0B9BCDE9AF
:107570000170A3FB09012EA3D3E90023FEF7C0FD90
:10758000033520F07F40EDB2009053462A4601219A
:1075900058460BF00DF930F002030CD02E4A2F495B
:1075A0002F4840F26D131BF003F8404080F3118820
:1075B0004FF0030002DF01220221104609F086FF8E
:1075C00015B0BDE8F08F04F124011DF0CFFB10E7EA
:1075D0009DF83C30237750E71846062200211DF025
:1075E000F0FB9DF844301098A37712A906221DF0F5
:1075F000BDFB15E7002301220093184611460BF04E
:1076000061F981E70DF0A0FC87423FF479AF124A9F
:107610001449134840F2FD131AF0CAFF404080F3AA
:1076200011884FF0030002DF6AE700BFAFF300806C
:107630008D49FD1A07000000FF59620283DE1B43DB
:107640007FC3C90100CA9A3B3DA103000DA10300FD
:1076500079A103008D49FD1A289E0400F49C0400C2
:10766000D0980400809E04002DE9F04F8FB0DFF821
:10767000D8800A900DF137010DF136000DF000FCB5
:10768000324F9DF836A09DF837B00BF05DF9D8F871
:107690000040A4FB07542AA3D3E9002381462146D6
:1076A0002846FEF72DFD0A9B0B90D8F804000693A0
:1076B000274B0593002622A3D3E90023A0FB070153
:1076C000CDE90766FEF71CFD0B9B20F07F40CDE95E
:1076D0000360204823F07F47A7FB00010723281AF7
:1076E00003FB071164EB01014FF47A720023FEF7EC
:1076F00007FD0096CDE901704B465A4603215046DE
:107700000BF056F830F0020416D1134A1348002348
:107710001AF06CF868B19DF837209DF83600009497
:10772000234603210BF0CEF86FF03B000FB0BDE80D
:10773000F08FD8F80C00F9E76FF04700F6E700BFCC
:107740008D49FD1A070000005453002000CA9A3BDF
:1077500039EE03008D49FD1A447B0B006453002071
:1077600038B50F4D04460BF0EFF8A9680BF0EEF8B2
:107770006968B0FBF4F404440A4807A3D3E9002382
:10778000A1FB0001FEF7BCFC20F07F40844294BFC7
:107790000020012038BD00BF8D49FD1A0700000000
:1077A0005453002000CA9A3B07B521F082F84FF4E9
:1077B0007A72A0FB020302FB0133C00B40EA434094
:1077C000064B4FF40042186000230548CDE9002322
:1077D0001AF000FB002003B05DF804FB80260020B7
:1077E000180B00200949BFF35B8F51E8003F43F0BD
:1077F000010241E800200028F7D1BFF35B8FDB07CF
:1078000003D40348083920F03CBE7047E001002053
:10781000D825002008B5044B187800F07BFABDE8A5
:1078200008401AF0E9BB00BF94770020044B1A7897
:10783000824202D01870FFF7EDBF0020704700BFF2
:107840009477002008B521F034F84FF47A72A0FB49
:10785000020302FB0133C00B40EA4340034B1860B4
:10786000BDE808400020FFF7E1BF00BF80260020F0
:1078700008B521F01EF84FF47A72A0FB020302FB58
:107880000133C00B40EA4340064B1B68C01A47F265
:107890003053984204DDBDE808400120FFF7C6BF21
:1078A00008BD00BF8026002030B5184C8DB00022E6
:1078B000002303A9204619F0A7FA08B10DB030BD86
:1078C000059DDDE903011AF073FBB5FA85F56D0935
:1078D000FF238DF8183007908DF8205020F0E9FF35
:1078E0004FF47A72A0FB020302FB0131C00B40EAA5
:1078F0004140C90B8DE8030006ABCDE90A010FCB6F
:1079000000F014FA1AF078FBD1E700BFBC0C00209D
:107910001FB583F00103CDE9011203930D4801A9BE
:107920000022002319F01EFABFF35B8F0A4951E8C9
:10793000003F43F0010241E800200028F7D1BFF3E7
:107940005B8FDB0703D40548083920F09AFD05B0AA
:107950005DF804FBBC0C00208C260020D8250020FC
:1079600038B519F053F8044680B10B4B0B4A00258B
:10797000C3E901251D60836809491B689847A3680E
:107980009B6833B120469847284638BD6FF01500F4
:10799000FBE71846F9E700BF84260020A97802001B
:1079A00011790200094A52F82030013342F82030A0
:1079B000074A0123834010780343DBB21370054A62
:1079C00050785370181A18BF012070479026002075
:1079D00095770020DD0900200D4A52F82030002B59
:1079E00012DD013B42F820300A4A2BB901238340C3
:1079F000107820EA03001070074B107859785870FF
:107A0000401A18BF012070476FF01500704700BF83
:107A10009026002095770020DD0900200449054BC1
:107A200009785A7808435870801A18BF01207047A7
:107A300095770020DD090020044A054B50781B781B
:107A40005370181A18BF0120704700BFDD090020CD
:107A500095770020A0F1E003072B03D82030C0B2B7
:107A6000FFF7A0BF064B062213F8011B19B1013A1C
:107A7000FAD10020704703F8010C0028F7D0F8E78E
:107A8000E0090020A0F1E002072A10B4034604D860
:107A9000203010BCC0B2FFF79FBF064A062000216D
:107AA00012F8014BA34208BF02F8011C0138F7D1BC
:107AB00010BC7047E00900200248082200211DF098
:107AC00080B900BFDE09002010B50849002301EB92
:107AD0004302B2F8014024B10133062BF7D1002054
:107AE00010BDA2F801000028F6D0F8E7D009002068
:107AF00030B50023074C194604EB43020133B2F8BA
:107B00000150854204BF51709170062BF4D10020C2
:107B100030BD00BFD009002002480C2200211DF01A
:107B200050B900BFD109002000487047DD0900208E
:107B300000487047D00900202DE9F041134B144E46
:107B4000A3EB060807460D4606EBC106C8F3C708B7
:107B5000A84504DC0024384621F057F813E03268C9
:107B60003B689A420AD1736838461B6898470128D7
:107B70000446EFD0022804D00028ECD101350836A5
:107B8000E6E73D7100242046BDE8F08180AD0400A9
:107B900050AD040030B58BB0084C204618F036FFCD
:107BA000C568074A23462821684604F017FA0122CF
:107BB000291D684602F02AFA0BB030BDB8A50400B2
:107BC000C2A504002DE9F8434668C7680546306839
:107BD00018F01CFF386000284AD096F8049096F8F8
:107BE0000580C468836848F400721B68494698475A
:107BF000002840D12368012202FA09F118F0010F90
:107C000014BF0B438B43236002F05AFB1B4802F066
:107C10008DFA044648BBDFF86880014630224046B2
:107C20001DF0CFF8174B1848C8F8043002F028FAB6
:107C30007B7963B901233B7100220023414613483D
:107C400019F006FFAB681B680BB128469847F1880E
:107C500059B140F2E7304FF47A72002300EBC130A3
:107C60000021FEF74DFA19F07BFD2046BDE8F883B0
:107C70006FF01504F9E76FF00404F6E7E401002063
:107C8000380F0020957B0200D5A50400D8250020E0
:107C900010B5064C204620F0B2FD21460448BDE850
:107CA00010404FF4F012002319F0D2BE380F00201C
:107CB000D82500202DE9F7430C469046144901AA27
:107CC00099461BF0D0FBE0B1019FD7B9104818F0DE
:107CD0009DFE012CC668054616D12246311D484638
:107CE000C047002806DB7471347928462CB11AF09D
:107CF00099F9384603B0BDE8F0831AF0A5F920469B
:107D0000F8E76FF00100F5E76FF01500F2E700BF4C
:107D1000B8A5040010B50C21044604201AF028F977
:107D2000014A0260047210BD4090040084B070B536
:107D300004AC84E80F00202104201AF019F904464D
:107D4000074B44F8083B04AD06460FCD0FC495E839
:107D5000030084E803003046BDE8704004B070477B
:107D6000449004000268034B9A420CBF0830002084
:107D7000704700BF449004007FB56C4684E80F0054
:107D8000182104201AF0F4F80546054B45F8083B85
:107D9000064694E80F0085E80F00304604B070BD39
:107DA0004890040084B070B504AC84E80F00202132
:107DB00004201AF0DDF80446074B44F8083B04ADF4
:107DC00006460FCD0FC495E8030084E80300304653
:107DD000BDE8704004B070474C9004000268034B4B
:107DE0009A420CBF08300020704700BF4C9004003E
:107DF00010B50C21044604201AF0BAF8014A0260BA
:107E0000047210BD5490040013B56C4684E803005E
:107E1000102104201AF0ACF80246054942F8081B6C
:107E2000034694E8030082E80300184602B010BD40
:107E30005C90040010B50C21044604201AF098F858
:107E4000014A0260047210BD6090040010B50C215C
:107E5000044604201AF08CF8014A0260047210BD36
:107E60006490040082B038B504A981E80C0005468E
:107E7000114818F0CBFD0446A0B16B68012B0CD063
:107E8000022B05D0A3B9BDE8384002B01AF007B9FB
:107E90001AF00CF900282046F5DCBDE8384002B0A5
:107EA0001AF0F6B86FF00400BDE8384002B0704731
:107EB0006FF02200F8E700BFB8A5040082B010B54B
:107EC00002A981E80C0004460A4818F09FFD58B149
:107ED0006368022B06D11AF0E9F80028CCBF002015
:107EE00001206060002001E06FF00400BDE8104058
:107EF00002B07047B8A504001FB520BB11B900201F
:107F000004B010BD11490A6842F001039A420B60A7
:107F1000F5D04FF48073ADF8003020F0CAFC4FF478
:107F20007A72A0FB023002FB0101DB0B43EA414302
:107F3000C90BCDE9023104AB13E90F00FFF71CFFB9
:107F40001AF05AF8DBE76FF01500D9E7B8260020E1
:107F50002DE9F04F9A46234B884615468A180C2186
:107F600001FB023393E807008DB005AC84E80700FD
:107F7000DDE9166718F04AFD814670B3CDE9088542
:107F8000CDE90A67059818F041FD8368D3F804B07D
:107F9000BBF1000F09D00CAB13E90300DDE90823A6
:107FA0008DE803002046D847A0B9D9F808301B78DF
:107FB000022B14D8CDE90A670CABCDF808A013E961
:107FC000030042468DE803002B462046CDE9088594
:107FD0001AF0E8F80DB0BDE8F08F0120FAE76FF075
:107FE0002200F7E7C090040073B5104B06460C461C
:107FF00015461AB10E4A126843F8212053F824108E
:1080000000201AF0BFF818B96FF0220002B070BD5E
:10801000DDE906230021CDE9002330462B46224628
:10802000FFF796FF0028F1DDEEE700BFBC26002039
:10803000B826002007B5094B1A78094B8DF80020A7
:10804000162102FB0133019302AB13E90300FFF792
:10805000DBFE03B05DF804EB19F0CEBF967700208D
:108060009877002002490348012201F0CFBF00BFEA
:10807000967700201DA70400014600F10803BFF316
:108080005B8F53E8002F42F0010043E8000CBCF185
:10809000000FF6D1BFF35B8FD30702D4014820F065
:1080A000F0B97047D825002070B503788AB004462F
:1080B0000E4607AD032B20D8DFE803F002191B1D85
:1080C000114928461CF013FE63780493A3780393A8
:1080D000E378029323790193637900930B4AA379A0
:1080E00005951E2130461AF070FA0AB070BD084995
:1080F000E7E70849E5E70849E3E7084A0A2128468F
:108100001AF063FAE0E700BF30A7040059A70400A3
:1081100037A704003EA7040048A7040052A70400A4
:108120002DE9F0438BB00D4616461F496A460446BA
:1081300098461BF098F9F8B10098E8B10A2201A915
:108140001CF05CFD019B1F7857BB162D28D1C4B2D3
:10815000042C25D8DFF854906C432A4609EB04011F
:108160004046B047002818DD04F10F0002A948443A
:10817000FFF79AFF002010E00D496A4620461BF0E9
:1081800072F950B1009B002BF4D1012D08D109499F
:108190002A464046B04700EAE0700BB0BDE8F083E5
:1081A0006FF01500F9E700BF7CA704009877002066
:1081B00021A704009677002010B588B004461DF072
:1081C0001FFD6946FFF770FF0A48FFF755FF20467D
:1081D0001DF016FD084B09491B78162202FB0311FE
:1081E0000F3107221CF0B1FD10B90548FFF744FF1D
:1081F00008B010BD3C020020967700209877002040
:108200003002002007B50A4B0A481B78162202FBF1
:1082100003006946002307220F300093CDF8033096
:108220001CF093FDB0FA80F0400903B05DF804FB48
:1082300096770020987700202DE9F04104468CB015
:108240000D464FF016080F4F04A9284614FB08F6F8
:10825000FFF72AFF06F10F002946072238441CF0D9
:1082600085FD22460849684603F0D0FE4246B9190A
:10827000684601F0CBFE0548FFF7FEFE0CB0BDE8F6
:10828000F08100BF9877002085A70400300200200D
:1082900037B50E4B0E4C1B78162202FB03440F34ED
:1082A00000250722694620460095CDF803501CF0B2
:1082B0004CFD48B12146284606F02AF820B11DF0B1
:1082C0005EFC012003B030BD0020FBE79677002064
:1082D00098770020F0B58DB0FFF794FF044610B9F1
:1082E000FFF7D6FF00B90224204D287804EB0010D8
:1082F000112805DC02282DD010280AD0002405E022
:10830000202806D012284FF000040AD020460DB0D5
:10831000F0BD05F089FB00232B7004460028EDD04A
:10832000F4E705F081FB2C7004460028EED1104FD5
:108330000FCF02AE0FC63B680E4933600422009493
:10834000234602A805F062FB04460028DED1022382
:108350002B70D3E7064E0FCE07AC0FC433682360F3
:10836000002304490093042207A8EBE79777002035
:10837000808F0400D090040030B591B005461DF008
:108380003FFC08A90446FFF78FFE01A9284606F026
:1083900013F89DF80530012B05D1FFF733FF214677
:1083A00018B904F095FE11B030BD034B1878FFF7F3
:1083B00043FFFFF78FFFF6E79677002030B58BB0CD
:1083C0000D4604461DF01CFC02A9FFF76DFE154B7F
:1083D00000221A701DB1FFF77DFF0BB030BD124AAD
:1083E000506991696B4603C3694620461DF053FCF2
:1083F000022120461DF009FBFFF76CFF20461DF00F
:10840000FFFB0A4B0A491B78162202FB03110F31AE
:1084100007221CF09AFC0028DFD10648FFF72CFE4B
:10842000DBE700BF97770020808F0400967700205D
:1084300098770020300200207FB5002005F092F8E8
:10844000044688BB01F03CFF194801F06FFE04466A
:1084500050BB184B0146302218461CF0B2FC164A9D
:108460004260164801F00CFE154801F009FE254651
:10847000E8B20021013504F02BFE0A2DF8D1114E8F
:1084800000252A463146684603F0C0FD013568469E
:108490001AF0E5FF052DF4D10B4805F0A9FD0B48B6
:1084A00006F0E8F8FFF716FF204604B070BD00BFE5
:1084B00018020020680F00206580020095A70400C4
:1084C00099A7040085A70400FC01002048020020B1
:1084D000034B04481B78162202FB03000F30704741
:1084E000967700209877002013B5044683682B21E7
:1084F000DB689847A8B9A3686A461B692B21204608
:10850000984770B9084C009B22789A4209D0D8B29B
:10851000207000F0FBFC20B92078FFF78BFC19F0ED
:108520006BFD02B010BD00BF06780020014B18683B
:10853000FFF7DABFC026002013B50C4818F066FA22
:108540000B4A106070B1FFF7CFFF044638B94FF403
:10855000F01200230748CDE9002319F03BFC204628
:1085600002B010BD6FF01204F9E700BFABA7040022
:10857000C0260020880B00200949BFF35B8F51E81B
:10858000003F43F0010241E800200028F7D1BFF38B
:108590005B8FDB0703D4034808391FF072BF7047B5
:1085A00078020020D825002010B50A480A4C18F09F
:1085B0002DFA206058B1094B09494C2215F0B8FE3C
:1085C00020681FF0AAFA074801F0B8FA08B16FF066
:1085D000150010BDB3A70400C4260020F0900400CD
:1085E000B9A70400E98502000A4B0B491870BFF3D4
:1085F0005B8F51E8003F43F0010241E80020002872
:10860000F7D1BFF35B8FDB0703D4044808391FF0B1
:1086100038BF7047ED09002084020020D8250020D3
:10862000014819F0BDB800BFFC0C002038B5144B50
:108630001B7804460D460B2B0BD8DFE803F01E1EFB
:108640000A0A1E060A0A0A0A0A1EBDE838401AF07B
:108650000BBE4FF4767200230A4819F0C7F80A4897
:108660002146006800232A461FF061FA044610B133
:10867000044819F095F8204638BD6FF01204FAE767
:10868000ED090020FC0C0020C4260020084B1B78BC
:10869000042B0AD004D8022B34BF012002207047DB
:1086A0000B2B14BF0220002070470020704700BF32
:1086B000ED0900201FB54C240294044C0194BDF830
:1086C000184000941EF089FC04B010BD05A80400F9
:1086D00008B50449044805234FF4007219F092F9D3
:1086E000002008BDF8780020980F0020014600F116
:1086F0000803BFF35B8F53E8002F42F0010043E80B
:10870000000CBCF1000FF6D1BFF35B8FD30702D48E
:1087100001481FF0B6BE7047980F0020F0B5134E09
:10872000134F89B0002200236946304618F06CFBD5
:10873000054608B109B0F0BD19F021FE0446002835
:10874000F8D01822294602A81CF03BFB08230DEBA9
:10875000030120460397CDF810D0ADF8143007F090
:108760003DFA20461DF00BFADCE700BF940C002018
:10877000789104002DE9F041134FDFF850808AB062
:1087800001AE002200233146384618F03DFB054675
:1087900010B10AB0BDE8F08119F0F1FD04460028DF
:1087A000F7D01822294604A81CF00BFB0C2304A9BF
:1087B0002046CDE90586ADF81C3007F00FFA2046BB
:1087C0001DF0DDF9DDE700BF6C0C0020DC9104003A
:1087D00037B5054640F6CD42014600230C4818F057
:1087E000C1FA044678B110F10B0F09D10022002321
:1087F0006946074818F008FB2846FFF7E9FF0446DA
:10880000204603B030BD0348FFF770FFF8E700BF14
:10881000940C00203C03002030B5054685B040F69E
:10882000CD42014600230C4818F09CFA044678B16A
:1088300010F10B0F09D10022002301A9064818F0FE
:10884000E3FA2846FFF7E8FF0446204605B030BDAE
:108850000248FFF74BFFF8E76C0C002030030020C4
:1088600008B5FFF761F9094A127822B1012A07D049
:108870006FF0220008BDBDE808400921FFF7D6BE11
:10888000BDE808400130FFF7A3BF00BFF609002094
:1088900008B5FFF74DF9094A127822B1012A07D02D
:1088A0006FF0220008BDBDE808400D21FFF7BEBEF5
:1088B000BDE808400130FFF7AFBF00BFF609002058
:1088C00002490348012201F0A1BB00BF0878002043
:1088D00051A8040010B501F0F3FC094801F026FC92
:1088E000044650B9074B3022014618461CF069FA7D
:1088F000054A4260054801F0C3FB204610BD00BF99
:108900004803002038100020C188020065A8040038
:1089100038B5FFF7BDFCC8B1FFF7B8FE02281BD180
:108920000F4B1C780F4D2B78A34217D0FFF7C4F8DC
:10893000FFF7F2F8FFF794FFFFF7AAFF20462C702D
:10894000FFF756FABDE8384019F056BBFFF79EFE18
:10895000841E18BF0124E5E70124E3E738BD00BF0A
:1089600008780020F609002070B50C4615460A4923
:1089700000221E461AF077FD50B1012C09D107499B
:1089800022463046A847002802DDFFF7C1FF00203D
:1089900070BD6FF01500FBE75BA8040008780020AD
:1089A0000148FEF7DDBF00BF6FA8040030B50A4CD8
:1089B0000A44914200D130BD11F8013B58400309EF
:1089C000E35C83EA0013DDB2C3F30313E05C80EAE7
:1089D0000510C0B2EDE700BF75A804000B680133B5
:1089E0000B60014B1B6818476003002007B50B465E
:1089F000002102460191034801A900F0F9F803B0F3
:108A00005DF804FBDD89020030B585B0CDE90101D8
:108A10000446002501A90548039500F0E9F8DDE9C1
:108A200002309842B8BF255405B030BD8B250400F4
:108A30002DE9F84FB0F8189019F00808044693464D
:108A40000DD001290CBF49F0100949F02009A0F808
:108A500018908BF31188BFF36F8FBDE8F88F09F082
:108A60000709022907D1204619F0D6FD0028F0D0C9
:108A70000128238B4ED16769218B002F15DA2568D9
:108A800021F00701C4E9008841F00101218300269B
:108A9000218B01F0070ACA4502D0A368002B5AD1E6
:108AA0000DB9002E71D0002356E001F007035A1FC4
:108AB000012A1ED821F00701062B256889B2C4E9D6
:108AC00000880AD13DB1638B2A46126801339BB2FC
:108AD000002AFAD1638341F002012183204619F074
:108AE0009BFD06460028D3D0238B43F0200323832D
:108AF000CDE7042B0CD121F0070189B22183204658
:108B000019F08AFD05460028C1D041F020012183DB
:108B10000025BCE7032809D1226923F00703166862
:108B200043F00603238300252F46B1E7042806D12E
:108B3000226923F00703566843F00403F2E705288F
:108B400006D1226923F00703966843F00503E9E79D
:108B500000252E46E8E7012341F0080121838BF32D
:108B60001188BFF36F8FFBB985BB16B11F49204633
:108B7000B0474FF02003EFF3118B83F31188BFF35D
:108B80006F8F238B23F008032383238BDA0625D5ED
:108B900023F0100323830121B4F8189009F007098A
:108BA00000297FF45EAF54E7A1680029DCD0D1F83A
:108BB0000090D1F804B03B4652462046D847B9F160
:108BC000000FD1D04946D9F80090F2E729463B463C
:108BD000524620462D6819F03BFDC5E713F02001F1
:108BE0001EBF23F0200323830221D5E77D26040046
:108BF0002DE9F04F8DB000241F46531E06468946CE
:108C00000B9407934FF0FF35A0464FF0000A0AE09F
:108C1000BAF1000F11D1252800F042814946B04732
:108C20000B9B01330B93079B13F8010F079300284D
:108C3000EED10B980DB0BDE8F08F7A280AD86228E3
:108C400012D8302854D047D8252800F027812D2865
:108C500000F02D8149462520B0470B9B01330B9333
:108C6000079B4946187814E1A0F16303172BF1D84C
:108C700001A252F823F000BF8D8E0200358D020054
:108C8000558C0200558C0200558C0200178D020095
:108C9000358D0200558C0200558C0200178D0200A4
:108CA000558C0200558C0200558C0200C38D0200C9
:108CB000558C0200558C0200698E0200558C020012
:108CC000358D0200558C0200558C0200C38D0200C8
:108CD000558C0200178D020039280FD95828B9D1B8
:108CE0006C2C40F0B58057F8042B4FF0000B99E046
:108CF000002D03DAB8F1000F00F0DC8025EAE575FD
:108D00000A2303FB0505B8F1000FA5F1300508BFE4
:108D10004FF0020887E7682803D1682C06D1482461
:108D200081E76C2802D16C2C00F0C780002C91D117
:108D3000044678E77A2C07D1BA465AF8042B9346B2
:108D4000D71775282ED112E06C2CF5D04C2C07D1FA
:108D5000073727F00707BA467F685AF808BBF0E7DD
:108D6000752807F1040A1AD1D7F800B00027B8F126
:108D7000030318BF0123B8F1010F0CBF30222022DA
:108D8000CDE901320BA90A23CDE9035100935A46DC
:108D90003B46494630461AF008F8574635E73A68E8
:108DA0009346D717002FE2DA49462D20B0470B9B98
:108DB000DBF1000B03F101030B9367EB4707013D68
:108DC000D5E770288CD157F8043B3D493D484FF01A
:108DD000000B5B451A460CBF8A4682461AF8010B07
:108DE0004946CDE90832B0470B9801300B909AF80C
:108DF0000000DDE908320028F0D193B9A5F1050A99
:108E0000B8F1030F7FF401AFBAF1000F7FF7FDAEA9
:108E100049462020B0470B9B01330B930AF1FF3AE0
:108E2000F2E7023DB8F1030318BF0123B8F1010FC7
:108E30000CBF30202020CDE901300BA91023CDE953
:108E40000351009349465B46304619F0AEFFDCE61D
:108E50004C2C7FF448AF073727F007031F46D3F8A1
:108E600004B057F8082BDDE757F804ABD3465B4650
:108E70001BF8010B20B9A3EB0A0AA5EB0A0ABFE70E
:108E80004946B0470B9B01330B93F0E757F8040BAF
:108E90004946B0470B9B01330B93B6E64946F8E7CA
:108EA0005446D0464FF0FF354FF0010ABBE64FF075
:108EB0000308B8E64FF00108B5E64C24B3E600BF5E
:108EC00085A804008BA804001FB507240294044C55
:108ED0000194BDF8184000941EF07FF804B010BD56
:108EE000F709002010B5084C86B024788DF817409B
:108EF000012402940DF117040194BDF82040009460
:108F00001EF06BF806B010BDFE09002000B589B058
:108F100064288DF8070019D80E4B1822187000210C
:108F200002A81BF04EFF0C4B03930DF107030493B3
:108F300002A901230020ADF8143006F04FFE10F115
:108F4000390F08BF002009B05DF804FB6FF0150071
:108F5000F9E700BFFE090020E89204002DE9F7437D
:108F60000E4680460821C06ADFF84C901AF03AF8A5
:108F70003468241A0746346004EA0905AC4203D871
:108F8000002003B0BDE8F08308236A46214640462E
:108F900019F084FF0028F4D168461AF003F840B9AC
:108FA000BDF80230BDF80420346005EA0905134419
:108FB0001D44E41BE2E700BF0000FFFF2DE9F04F76
:108FC000044693B0C06A08211AF00CF863681B0CC1
:108FD0001B04804601A9E089019319F0F8FF019B69
:108FE000A1891944A1EB0801082304AA2046029193
:108FF00019F054FF0028C0F28380E36A04AA1979AB
:10900000002312F8010B81426CD10133082BF8D1F7
:109010000199204619F09FFF72E0029BBDF81220D3
:109020001B0C1B0413440293DFF8DCA0DDF808904E
:1090300006AA02A9204619F0DFFF002860D106A881
:1090400019F0B0FF80BB6368039308AA03A9204608
:10905000039D19F0D1FF002852D1BDF82020BDF8A2
:1090600018309A4223D06268039B9A42EDD14D4555
:109070001AD1BDF81C30BBB1BDF81A3009EA0A0696
:109080001E4406A8A368ADF81A3019F097FFE36AEA
:10909000BDF81C701D686D4205F020056FB906A96A
:1090A00020461AF057F858BBC145BFD1B0E708A811
:1090B00019F078FF0028D6D1D9E7BD42AB4628BFCA
:1090C000BB465B460AAA3146204619F0E7FEB8B90E
:1090D0005A460AA920461AF02AF888B9A7EB0B07C6
:1090E0005E44DBE70298A0EB080804A819F05AFFD9
:1090F000002892D002A92046FFF730FF002893D025
:1091000013B0BDE8F08F00BF0000FFFF2DE9F0476E
:10911000044686B00D4600F1140630461FF02DF9C6
:10912000284617F073FCA062002800F0D680836800
:109130001B699847E06228B96FF01505284606B00C
:10914000BDE8F087A06A83681B6998470368013B04
:109150001F2BF1D8A06A216803AA1EF052FE002836
:10916000EAD1A589002DE7D0049BB5FBF3F203FB00
:109170001255002DE0D1E389012BDDD9E36A00957A
:1091800093F804804FF0FF334FF0FF32304617F072
:1091900095FEE06A082119F025FFA9460746E389F4
:1091A0001FFA85FA534553D8E3894B4500F0928066
:1091B00053450BD1009908234246C91B204619F09C
:1091C000A5FE18B9E089694619F001FF009BDFF898
:1091D0004491DA1B03EA09036260A360D4E9011336
:1091E00099420ED3082301AA204619F057FE0546DE
:1091F00028BB01AB13F8012B904571D10135082D27
:10920000F8D1D4E901318B4207D95B1A4246204696
:1092100019F07CFE051E12DB3ED16368DFF8F49086
:10922000E08903EA09036946009319F0D0FEA38997
:1092300000994246204619F069FE051E32DA304692
:1092400017F0AEFE002D7FF479AF0123237475E78C
:10925000A1892B04C91B13FA81F142460823204639
:10926000009119F053FE78B1E089694619F0AFFE1C
:1092700009F1010900990823424620461FFA89F99D
:1092800019F044FE00288FD0013588E7BAF1000FAD
:109290003CD06FF01C05D2E7E26AA3681268134461
:1092A000A360AEE7CBD06168204619F054FE0546B6
:1092B0000028C4D16368A08903EA09030344A3EB2F
:1092C0004707676007EA0907A7602046FFF776FEB1
:1092D0000546B4E76FF02005B1E76FF005052DE70F
:1092E00001A819F05FFE656880B9009ABDF80630E4
:1092F000BDF808A0E06A02EA09021A44A2605146D9
:1093000019F070FE0244AA42A260BFD0ED1B656056
:1093100064E700BF0000FFFF2DE9F04F1E46037C0D
:1093200089B0044689469046002B00F0B280C26A9C
:109330000821104619F056FE31468246104619F0B3
:1093400051FEA3890AEB4A029B1AB3420746C0F0BA
:10935000A3801EB1B8F1000F00F09E8063680393F4
:1093600004AA03A92046DDF80CB019F045FE054615
:10937000002859D1BDF810304B4505D06268039BD9
:109380009A42EDD1D6B94FE004A819F00BFE00289F
:10939000F4D1BDF8143086B1B3420FD1BDF812003C
:1093A0004FEA1B410904014433464246204619F066
:1093B00083FD002802DC054636E0ABB3002F37D131
:1093C00004F1140A4FF0FF324FF0FF33504617F00C
:1093D00075FDDFF8CCB0E3899D4257D0D4E9012375
:1093E000F9188A4227D3ADF81A3006A8FF238DF862
:1093F0001E30ADF81890ADF81C6019F0DFFD324654
:109400004146204619F093FE034638B906A9204686
:1094100019F0A0FE002814BF0346334601935046BE
:1094200017F0BEFD019B1D46284609B0BDE8F08F30
:109430005744BFB2C4E70821E06A19F0D3FD4FF6E4
:10944000FF73ADF818300023ADF81C301318ADF8D9
:109450001A30A38902EA0B021A44121A626006A8A3
:1094600019F0ACFD06A9204619F074FEE089211D13
:1094700019F0ADFD636803EA0B03A3602046FFF714
:109480009DFD03460028C9D10135A4E76FF01B03F9
:10949000C4E76FF00C05C7E76FF01505C4E700BF20
:1094A0000000FFFFF0B5104B104C114D1B1B9B1023
:1094B0006B43104DD5F824C000259D4202D16FF0BA
:1094C0002200F0BD676867450AD3266946B197F860
:1094D00002E00779BE4503D13346BDE8F0401847A6
:1094E00001352434E9E700BF340F0020100F0020BD
:1094F000398EE338C82600202DE9F041124B134C79
:10950000134D1B1B9B106B43124DD5F824C0002537
:109510009D4203D16FF02200BDE8F0816668664588
:109520000ED3A76967B196F8028090F804E0F04581
:1095300003D13B46BDE8F04118477679012EF8D0BB
:1095400001352434E4E700BF340F0020100F002061
:10955000398EE338C82600202DE9F8430E4D0F4C14
:109560000F4B641BA41006460F4690465C434FF019
:1095700000094C4502D16FF022000BE06B691BB96A
:1095800009F101092435F4E7424639463046984747
:109590000028F5D1BDE8F883100F0020340F00201B
:1095A000398EE33807B583788DF800300379427936
:1095B00043EA0223ADF80230C378684603F00303A0
:1095C0008DF8043001F0ECFD10F1450F04D018B116
:1095D000002003B05DF804FB9DF8000001F066FE7A
:1095E00010F1450F01D00028F2D1024B012083F881
:1095F000B900EEE7C826002008B509480378C3F390
:1096000041130A3350F823303BB100F1080200F156
:1096100010019847C043C00F08BD1846FCE700BFC3
:10962000C82600202DE9F14F254D264C264B641B02
:10963000A4105C43031F012B06460F4625D8DFF814
:109640008C9099F8B93003B300F056FC042E1CD16D
:109650004FF00008444515D0D5F820B04FF0000A6F
:109660002A7F5FFA8AF39A4203D808F10108243569
:10967000F0E70BEBC3030AF1010A187901F040FE91
:109680000028EDDA002389F8B9300D4D4FF00008BD
:10969000A04508D10D4B1B6A7BB13946304601B05D
:1096A000BDE8F04F1847EB681BB13A4631462846F3
:1096B000984708F101082435EAE701B0BDE8F08FCA
:1096C000100F0020340F0020398EE338C826002008
:1096D0002DE9F04FA94DAB6985B006460C46904682
:1096E00063B9337803F01F03012B00F08880022B4D
:1096F00000F0D18043B16FF0150002E098470028D8
:10970000EFD105B0BDE8F08F72787088D8F80030DE
:10971000092AF0D801A151F822F000BF45970200B4
:10972000F7960200F7960200F7960200F7960200FD
:10973000519702005B970200F7960200899702009A
:10974000939702000020012258701A7002236FE0E4
:10975000C0B201F013FD0020D3E7020A131F012B52
:10976000C9D9072AC7D86B6AC0B200211D78002D5D
:10977000C1D05E78964203D1884200F0F680013174
:109780002B44F3E71B78F6E095F8BA201A70012312
:10979000F1E0C7B28DF80F7077B14FF0FF086C6A37
:1097A0000026C146237853B9EB691BB10DF10F01B7
:1097B00003209847002E9ED085F8BA70CBE76378D7
:1097C000042B0DD0052B0ED0022B06D194F805806A
:1097D0009DF80F30434508BF012623781C44E1E77C
:1097E00094F80390F9E79DF80F304345F5D1B9F1AE
:1097F000000FF2D12046FFF7D5FE0646EDE795F8BB
:10980000BA30002B3FF477AF6F6A96F804903B466E
:10981000197800293FF46FAF5A78022A03D11879DA
:10982000484500F2B3800B44F2E700201870012392
:10983000236066E796F802B0FF26B2464FF00008B4
:109840003B783BB9EB6913B14146072098470020AC
:10985000206056E77B78042B04D0052B0BD03B7897
:109860001F44EDE7BE7897F803A0B145F7D1D34583
:1098700008BFB846F3E7B145F1D1D34507D0B87872
:10988000019019F0B2FD019801F03AFDE7E7384682
:10989000FFF788FEE3E73079D8F800708DF80F0005
:1098A00030F0800C1ED0364A364B37499B1A9B103D
:1098B0004B434FF0000E73453FF41DAF116A92F811
:1098C0001C904FF0000804395FFA88FACA4503D3A8
:1098D0000EF1010E2432EEE708F1010811F838A06C
:1098E0008245F1D17378012B12D0032B27D0002BA6
:1098F0007FF401AFBCF1000F04D095F8BA30002B13
:109900003FF4F9AE394601F0B5FC002078701DE750
:109910007388002B7FF4EFAEBCF1000F04D095F8F4
:10992000BA30002B3FF4E7AE01F084FCEB69002B6A
:109930003FF411AF0DF10F01092098470BE7738831
:10994000002B7FF4D8AEBCF1000F04D095F8BA30EC
:10995000002B3FF4D0AE01F045FCEB69002B3FF447
:10996000FAAE0DF10F010820E7E7022AC8F800302F
:109970007FF408AF5B882360EDE600BFC8260020B7
:10998000100F0020340F0020398EE3387078D8F89B
:1099900000300A283FF449AF0B283FF44BAF0028B2
:1099A0007FF4A9AE187058702260AAE637B5134C40
:1099B000237D0546BBB9E268A168019201AB802016
:1099C00019F03AFC0199A268E3680A445B1AA260A4
:1099D000E36033B923699D4203DD9B0601D1012376
:1099E000237503B030BD00231A4619468020237525
:1099F00003B0BDE8304001F0A3BC00BFC826002082
:109A000030B585B00B4600210246019100285ED199
:109A1000002B3AD108220DEB020119F00FFF0028AC
:109A200004DA802001F0DEFB05B030BD2D4C9DF83E
:109A300009306370BDF80A306380BDF80C30A38034
:109A4000BDF80E309DF808202270802BE38006D9E7
:109A5000D10904D1802001F0C5FB0020E2E72249B2
:109A60002361C4E90213002121750BB1D309DBD0B6
:109A7000FFF7C2FD0028D4D0E08823698342D4BF19
:109A8000E360E060FFF792FFCEE7164CD4E90215E1
:109A9000002D01AB04DC19F0D1FE0028C4DAC0E7C8
:109AA0002A4619F0CBFE0028D4DB0199A268E368AE
:109AB0000A445B1AA260E360002BB5D104F13803BD
:109AC000A360FFF799FD0028ABD0E088DAE7802893
:109AD000AAD1044BDA6812B91A7D002AA4D0D8881A
:109AE000D0E700BFC826002000270020054B064A0B
:109AF0009A62064ADA62064A1A63064A58629A610C
:109B000000207047C8260020D1960200A5940200CC
:109B100059950200F9940200074B10B593F8B8402C
:109B200024B900F0AFF918B1FFF7E0FF002010BD35
:109B30004FF0FF30FBE700BFC82600202DE9F743B8
:109B40000446384D38484FF0FF324FF0FF3317F0DE
:109B5000B5F995F8B860002E41D134482C62E8611F
:109B600001F004FD01F0CCFA041E39DB00F0E4F949
:109B7000041E35DB40236846ADF802308DF80460E2
:109B80008DF8006001F00CFB041E29DB802768467D
:109B90008DF8007001F004FB041E21DB24493046DF
:109BA00001F0D0FC041E1BDB2149384601F0CAFC41
:109BB000041E15DB1F4F204C204BE41BA4105C43FC
:109BC000B44214D1002001F071FB041E08DB802098
:109BD00001F06CFB041E03DB012385F8B830002480
:109BE000114817F0DDF9204603B0BDE8F083D7F83F
:109BF00020904FF000083A7F5FFA88F39A4202D82B
:109C000001362437DCE709EBC30259F83310107929
:109C100001F098FC08F101080028ECD04FF0FF3467
:109C2000DEE700BFC8260020580C00202596020061
:109C3000019A0200100F0020340F0020398EE33803
:109C400030B51C4B89B003AA03F110051868596898
:109C5000144603C40833AB422246F7D11B78237065
:109C60000822002101A81BF0ACF8122200211248A2
:109C70001BF0A7F8082101A819F0EFFD002816DD58
:109C80000D4901AA002012F8013B08AC04EB1314A3
:109C900003F00F0314F8144C0C7008AC234401308B
:109CA00013F8143C4B70082801F10201EBD1024873
:109CB00009B030BDA9A80400097800202DE9F04FB3
:109CC0006B4A6C4B9B1A6C4A87B09B1053430446FB
:109CD000019300254FF0011BA9462E46AA46207885
:109CE00020B9664B02349C4217D0F2E76378052B0B
:109CF00005D8DFE803F083040383072BA24623780B
:109D00001C44ECE7E378002BF9D1A3789BB9584ABF
:109D10000199994204D14FF0FF3007B0BDE8F08FB0
:109D200051688C4202F124020AD1514A242606FBD2
:109D30000326B36833B909F101095FFA89F9DEE74F
:109D40000133E5E7494620469847F4E7002EE2D084
:109D500000230121327F9342DDD2326AA77802EBE1
:109D6000C3021079874201D00133F3E70127E0787D
:109D700094F805C000F003008DF81400207940EA43
:109D80000C20ADF8120094F9020000285FFA87F861
:109D900028DA07F1100001FA00F010EA0B0F29D1C0
:109DA00068F07F008DF8100004A8CDE9023219F0A8
:109DB0002DFDDDE902320121E0B99DF81030A370DC
:109DC00013F0800F1CBF08F110085FFA88F81371B8
:109DD0000B4615BF01FA08F8BB404BEA080B4BEAEB
:109DE000030B8CE701FA07F010EA0B0F02D18DF894
:109DF0001080D9E70137102FB9D1B5E7032D1DD158
:109E0000FFF71EFF074668B11AF07BFF804648B196
:109E10001B481AF076FF804504D142463946A01C03
:109E20001AF0A4FF23786FF00201E218091B04EB7B
:109E30005303D14213D50135EDB260E7002DF1D1C6
:109E4000BAF1000F3FF467AFA4EB0A038AF80230BF
:109E5000C3F307238AF803308AF80490EBE74FF046
:109E6000000002F8010C13F8010902F8020DE0E706
:109E7000100F0020340F0020398EE3380E0F002021
:109E8000A9A8040008B50448FFF718FF00280248F5
:109E900018BF002008BD00BF7C0E002010B5094B84
:109EA00000211A461C78844205D15C681CB144200C
:109EB00000FB012010BD0131042903F14403F1D15D
:109EC0000020F7E784270020014600F10803BFF3D4
:109ED0005B8F53E8002F42F0010043E8000CBCF117
:109EE000000FF6D1BFF35B8FD30702D401481EF0F9
:109EF000C8BA7047D8250020F8B50E4C04256FF07D
:109F000047074FF02003EFF3118683F31188BFF367
:109F10006F8F6368103304D104F134006760FFF77A
:109F2000D3FF86F31188BFF36F8F013D04F1440422
:109F3000E7D1F8BD84270020F8B5094C094F042566
:109F40000026C4E90D67E663012204F11C001146F6
:109F50001EF0D5FB013D04F14404F2D12846F8BDC2
:109F600084270020E3320400084B30B51C68084BFE
:109F700001461A6800239C4201DC002030BD1046D7
:109F8000103205788D42F9D00133F4E76493040070
:109F9000C4030020084B1B6810B50C462BB1FFF71B
:109FA000E3FF28B12060002010BD6FF00C00FBE73C
:109FB0006FF00100F8E700BFC403002030B589B09E
:109FC0000C4615460190FFF7CFFFB8B143680293E6
:109FD00083682268C068CDE903350023CDE90623F4
:109FE000059319F01CFA60B1074901AA1DF00DFF95
:109FF000079808B9059B236009B030BD6FF01500C4
:10A00000FAE76FF01200F7E723340400104B2DE954
:10A01000F0411C6805460E461746ACB14FF0FF32C2
:10A020004FF0FF330B4816F049FF63683246D3F810
:10A03000088029463B462046C0470446054816F09E
:10A04000AFFF2046BDE8F0816FF00104F9E700BFE3
:10A050009C280020440C002000230360044B5A6815
:10A0600012B9C3E90000704710605860704700BF24
:10A0700094280020014B1860704700BF9C280020E6
:10A0800030B585B000230546CDE9023301904FF08D
:10A09000FF330C484FF0FF3216F010FF0A4B1C68DC
:10A0A00034B1636820461B6801A998472468F7E724
:10A0B000284600F0C9F80446024816F071FF204611
:10A0C00005B030BD440C0020942800201FB5CDE918
:10A0D000010103924FF0FF330A484FF0FF3216F0B0
:10A0E000EDFE094B1C6834B1636820461B6801A96A
:10A0F00098472468F7E7034816F052FF002004B0A1
:10A1000010BD00BF440C002094280020024B002208
:10A11000C3E90022704700BF94280020024B0022B0
:10A12000C3E90022FFF7F2BFA028002070B51D4C44
:10A130001D4E0546B44217D31C4E1D484FF0FF324A
:10A140004FF0FF3316F0BAFE3468A4B972680024E9
:10A1500005F114036C61DAB9C6E9003314461448FA
:10A1600016F01EFF204670BD216828681AF0D0FD49
:10A17000A0B11434DEE7143C002CE7D02168286835
:10A180001AF0C6FD38B114F1140FDFD06469DCE7B2
:10A1900013607360E3E76FF01004E0E76FF0100402
:10A1A000E0E700BF008F0400788F0400A0280020A3
:10A1B000440C00202DE9F34107460E4609B1002367
:10A1C0000B601E4CDFF878800025444508D31D4BFA
:10A1D0001C680CB1143CC4B9284602B0BDE8F0813B
:10A1E000216801AA384619F03EF960B125B90EB1CF
:10A1F000019B3360254606E029682068002219F09B
:10A2000032F90028F3D11434DFE7216801AA384677
:10A2100019F029F960B125B90EB1019B33602546CB
:10A2200006E029682068002219F01DF90028F3D102
:10A2300014F1140FD0D06469CBE700BF008F040085
:10A24000788F0400A0280020F8B51A4C1A4F064653
:10A250000025BC4206D3194B1C680CB1143C9CB9B8
:10A260002846F8BD1EB9E3684BB91434F1E72068FD
:10A270000022314619F0F7F80028F4D1F5E79847A5
:10A28000002D08BF0546F0E736B9E36863B914F15D
:10A29000140FE5D06469E0E720680022314619F028
:10A2A000E2F80028F1D1F2E79847002D08BF0546F3
:10A2B000EDE700BF008F0400788F0400A028002085
:10A2C00010B5064C23783BB9FFF728FF00F064F87F
:10A2D00008B90123237010BD0020FCE71B78002083
:10A2E0002DE9F047048FDFF8ACA0013498B0804628
:10A2F0008946A4B200F10806651EADB2B5F5004F5F
:10A3000045D04A2305AA2946304618F08EFF04F5A9
:10A310007F543F34A4B20746214601230DF10B02BE
:10A32000304618F082FF002F014603DC002803DCD2
:10A330002C46E1E7002816DCB8F83830AB4209D1EA
:10A3400042466B1E22F8383F4FF40041022330464C
:10A35000FEF7E2FF2946304618F00DFF2146304651
:10A3600018F009FFE4E718AB1F44002307F84C3C42
:10A370005246CDF8009003AB05A80396ADF8104007
:10A3800019F0AAF80028D3D018B0BDE8F087002053
:10A39000FAE700BF3F3504007FB50123694602207C
:10A3A0000193FFF7F7FD0446002836D102AA01A960
:10A3B0000220FFF703FE10F1130F04462DD038B131
:10A3C0000C3405D0404080F311884FF0040002DFC8
:10A3D0000399B1F5803F23D2009A0023956818466F
:10A3E000084485429CB203D30133082BF8D11C46A4
:10A3F0000D4D5368AB602846D368EC82A982EB63AD
:10A4000019F034F9044640B9084E6E602846FFF74B
:10A4100023FE28466E60FFF72DFE204604B070BD77
:10A420006FF02404F9E700BFA8280020C80300202B
:10A43000F8B505464FF02003EFF3118683F311883A
:10A44000BFF36F8F094B1C685CB1094FD4E901322F
:10A45000002D08BF13460BB1387898472468002CAC
:10A46000F4D186F31188BFF36F8FF8BDE828002080
:10A47000F02800202DE9F341184F194C3B78014694
:10A480003BB96D46284619F00DF995E8030084E8BC
:10A4900003002578F5B1134E4FF000080120043D6C
:10A4A000C6F80080FFF7C4FF012D98BF0E4B94E85B
:10A4B000030098BF83F800801AF0B5FC306840B9FB
:10A4C000012338703360FFF7B3FF94E803001AF0FC
:10A4D000BDFC2578284602B0BDE8F0811C7800203C
:10A4E000F0280020D8030020F478002008B5064B9F
:10A4F000186840B901221A60FFF79AFF034B93E8EE
:10A5000003001AF0A3FC08BDD8030020F0280020A7
:10A5100008B504464FF02002EFF3118382F311884F
:10A52000BFF36F8F19F0D2F9204601F09FFD034869
:10A5300018F03EF801F02CFBFCE700BFCDA80400AA
:10A54000084B70B5C31A0D4607499B100446594382
:10A550000648402219F0C6F82B4601462046BDE8C1
:10A560007040184708290020B76DDBB6000A0020AC
:10A5700073B50C4C0C4A4023041B00930D460B464C
:10A580000A49A41061430646094819F0D7F8011E8C
:10A5900005DA30462B4602B0BDE87040184702B0DD
:10A5A00070BD00BF08290020AD370400B76DDBB6D1
:10A5B000000A0020002270B501210446104601F077
:10A5C00087FA002001F052FA104814F0B7FE104B41
:10A5D000984218D1E06800F00BFA14F0C1FEE6686A
:10A5E0000C49304618F067F800280BDBE46809498D
:10A5F0000125356404F11C0018F05DF8002801DB2A
:10A60000E564002070BD6FF00400FBE74DA602007A
:10A610000000AD0B8C93040001460C2309484B430A
:10A6200070B5C418D4E90E5600224033A263184412
:10A6300019F045F82DB132462B460348BDE870406D
:10A64000184770BD08290020000A0020012810B515
:10A6500004460AD003280CD078B9084B1B6C5B0762
:10A660000BD1BDE81040FFF7D7BF00F0CFF920466F
:10A67000F7E7BDE8104000F0D7B910BD0829002069
:10A6800008B54FF02003EFF3118183F31188BFF376
:10A690006F8F124A136843F0020013F00103106039
:10A6A0000CD04FF08042D2F80C34D2F80C2413F0C6
:10A6B000010303D00A4819F002F8012381F311883D
:10A6C000BFF36F8F23B1BDE808400020FFF7A4BFA0
:10A6D000BDE8084001201DF0C7BB00BF582900207D
:10A6E000482900207FB500220123CDE9022304ABD5
:10A6F000CDE90433094ACDF800D06B46CDF804D03B
:10A7000019F04DF8002805DB4FF48042002368461D
:10A7100017F06CF807B05DF804FB00BFC537040004
:10A72000094BBFF35B8F53E8002F22F0020143E88F
:10A7300000100028F7D1BFF35B8FD30702D40120AC
:10A7400014F020BE704700BF58290020024AC3B24F
:10A750001C2003FB0020704708290020094BBFF391
:10A760005B8F53E8002F42F0010143E800100028FE
:10A77000F7D1BFF35B8F930702D401201DF074BBA8
:10A78000704700BF58290020094BBFF35B8F53E887
:10A79000002F22F0010143E800100028F7D1BFF399
:10A7A0005B8F930702D4012014F0ECBD704700BF0B
:10A7B00058290020F8B52849BFF35B8F06460122CF
:10A7C00051E8003F41E800200028F9D1BFF35B8F3A
:10A7D00033B9224922484B60CB608A6017F07EFF74
:10A7E000731E012B20D81DF09AFF044610B91D4B93
:10A7F0001B7853BB4FF02003EFF3118583F31188CF
:10A80000BFF36F8F01244FF08047D7F81834D7F883
:10A810001824D20309D59B0701D0012E05D174B1AC
:10A8200085F31188BFF36F8FF8BD1CB1284601F086
:10A83000BDF9EAE70021212016F092FFE5E74FF08D
:10A8400080430222C3F80423EEE74FF08043022244
:10A85000C3F808230546D6E75C290020F828002025
:10A8600024290020F57800200D4BBFF35B8F0122D7
:10A8700053E8001F002903D143E800200028F7D146
:10A88000BFF35B8F0AD107490023CB60064B4B60B7
:10A8900003238B60054B186817F020BF704700BF7B
:10A8A000602900206429002001A9020074290020E9
:10A8B00008B5034816F0AAF8024B1860002008BD3E
:10A8C000FCA804007829002007B500220023CDE968
:10A8D000002308484FF40032002317F07BFA064BA0
:10A8E000186817F044FF054B00221A6003B05DF8AA
:10A8F00004FB00BF500B00207429002060290020B9
:10A9000008B5114B1B6853B94FF080430222C3F8BE
:10A91000342C14F073FD0D4B01221A7008BD0C4944
:10A92000BFF35B8F51E8003F43F0010241E8002094
:10A930000028F7D1BFF35B8FDB07EFD4BDE80840F9
:10A94000044808391DF09DBD782900201D7800209D
:10A95000E4030020D825002037B5204D28688368FF
:10A960001F4CDB683821984798B1002323701A46A2
:10A97000217809B1012A25DD1A4A13804FF080435E
:10A980000222C3F8342C14F039FD0123237003B0E4
:10A9900030BD286883686A461B690C2198470028E7
:10A9A000E3D1114A019B93FBF2F3009A03EB82037C
:10A9B0000C4AB2F900201BB29A1A002AB8BF5242C0
:10A9C00012B2D5E7094A13680139013321701360C7
:10A9D00003B0BDE83040FFF777BF00BF7829002003
:10A9E0001D7800201077002090D0030080290020DF
:10A9F000034B044A186000231360034A1360704736
:10AA0000742900207C29002080290020024B00228C
:10AA10001A70FFF729BF00BF1D78002001481DF004
:10AA200075BF00BF500B0020024A1368013313604A
:10AA3000FFF74ABF7C29002000F07F03082B42B2B9
:10AA400004D010F0780F01D000207047002A00F0E9
:10AA50000F0300F0080005DA58B9084800EB43106E
:10AA60004830704738B9054800EB431000F5B47022
:10AA70007047034870470348704700BF842F002089
:10AA8000CC300020EC310020014601481DF0F9BC1B
:10AA9000740D002008B50A4814F0C0FD094814F0F0
:10AAA00003FE094909484FF0FF334FF4806216F066
:10AAB000A9FF074B074A0020C3E90B20986208BD95
:10AAC00006A9040098930400F87A0020681000207A
:10AAD000842F00201DAE020002480022002316F041
:10AAE000A3BA00BF740D002010B5054CFFF7F4FFAA
:10AAF00020B1011D204616F009F9F7E710BD00BF8F
:10AB0000F80B00200949BFF35B8F51E8003F43F089
:10AB1000010241E800200028F7D1BFF35B8FDB077B
:10AB200003D4034808391DF0ACBC7047B42F002093
:10AB30006810002007B500230E48002201A916F076
:10AB4000B5F890B1FFF7D0FF0A480022002301A911
:10AB500016F0ACF838B90198042340600374FFF78D
:10AB600093FFFFF7CFFF002001E00198406003B0A2
:10AB70005DF804FBF80B0020817870B506460846A6
:10AB8000FFF75AFF0B06F578044612D5002D43D186
:10AB9000FFF7D0FF034600283ED00122A5770274BC
:10ABA000032202739C60FFF76FFFBDE87040FFF760
:10ABB000A9BF4DB1012D2FD1FFF7BCFF034658B3FC
:10ABC000657705740573EDE7FFF7B4FF20B3B2783E
:10ABD000124B12F0800F02F0080111D041B1D3F8EE
:10ABE000A836E36001230374022303738460DAE769
:10ABF00002F00F02142101FB0233D3F80836F0E70C
:10AC000011B1D3F8A837ECE702F00F02142101FBD1
:10AC10000233D3F80837E4E770BD00BF007002408C
:10AC2000022810B511D8094B1C5CFFF783FF60B1F7
:10AC3000002202740472FFF727FF054B93F82430BB
:10AC40001BB1BDE81040FFF75DBF10BD03A90400B4
:10AC5000842F002010B50F49BFF35B8F01F1200353
:10AC6000002253E8000F012803D143E80024002C00
:10AC7000F7D1BFF35B8F0BD1CC690C31204617F0B5
:10AC80009BFD453004D12046BDE8104017F06FBD54
:10AC900010BD00BF842F0020F0B5064689B01422F5
:10ACA000002103A81AF08DF83378013B052B21D839
:10ACB000DFE803F07A0314146A1603238DF81430C6
:10ACC0000024FFF737FF0346A0B1047400F1080227
:10ACD000DDE9050182E8030018461DE00423EDE7E5
:10ACE000B1780846FFF7A8FE837A044623B1013BFA
:10ACF000022B43D909B0F0BD0B06F57813D5002D12
:10AD0000F8D1FFF717FF03460028F3D00122A577FB
:10AD10000274032202739C60FFF7B6FE09B0BDE81F
:10AD2000F040FFF7EFBE55B1012DE3D1FFF702FF71
:10AD300003460028DED0657705740573EBE7FFF75F
:10AD4000F9FE07460028D5D00123037402230373BC
:10AD5000846004F10C01B0781DF04CF9134AE168ED
:10AD6000B2F888328B4206D95B1AA2F8883215F005
:10AD700011FA3846D0E7A2F88852FAE7304609B00F
:10AD8000BDE8F040FFF7F8BE01A815F0DDF99DF829
:10AD90000530052B04D19DF8043013F0600FA9D0C5
:10ADA000034B059301248CE702248AE7842F0020BB
:10ADB000EC30002038B5002464F07F00C0B2FFF70B
:10ADC0003BFE013418F00BFD082CF5D10F4D00248B
:10ADD000E0B2FFF731FE036903B90561013418F0F1
:10ADE000FEFC082C05F14005F2D1094C04F5A470D5
:10ADF00018F0F5FCD4F8783213B9064BC4F8783261
:10AE0000054818F0ECFC002038BD00BF842D002060
:10AE1000842F002084290020EC3100202DE9F0430C
:10AE2000A74CDFF8A08285B00746FFF755FE10B9A2
:10AE300005B0BDE8F08394F82530027C00F10409E8
:10AE40003BB9002A00F085804946404615F05EFF78
:10AE5000EBE7042AF8D8DFE812F07C0005000201D5
:10AE600018014101037B8568032BEDD8DFE803F06F
:10AE7000023C595E6E6908220021304619F0A1FF9C
:10AE8000914B9248D3F880243270D3F884247270A6
:10AE9000D3F88824D3F88C1442EA01227280D3F8C4
:10AEA0009024D3F8941442EA0122B280D3F8982473
:10AEB000D3F89C3442EA03230822F3803146EA6047
:10AEC00019F054FF2B68687A002198473378DB0922
:10AED00006D1F38823B1A4F8883215F05BF9B3E703
:10AEE0000023A4F88832AFE76B7F002BACD02B7F18
:10AEF000002BA9D000266E774FF0FF3274482E77D2
:10AF00004FF0FF3318F07EFC6B6901936B68CDE95D
:10AF1000023601A9687A14F03BFF6D4818F074FC02
:10AF200092E72B680121687A98478DE7AB7A6BB975
:10AF3000EB7F5BB966484FF0FF324FF0FF3318F0FC
:10AF400061FC15F057F9624818F05EFC2B6802218D
:10AF5000E9E7027A042A3FF677AFDFE802F05B0305
:10AF60002569750014F0C8FE054600287FF46CAF13
:10AF700014F006FEBFF35B8F5649012351E8002F02
:10AF8000002A03D141E800300028F7D1BFF35B8FDE
:10AF90007FF45AAF41F8105C41F8085CE0696361E6
:10AFA000143917F09BFB4FE7002565F07F00C0B216
:10AFB000FFF742FD037A13B1407A15F011FB01351A
:10AFC000082DF2D194F850311BB194F8510115F0CD
:10AFD00007FB0025E8B2FFF72FFD037A13B1407A93
:10AFE00015F0FEFA0135082DF4D194F870321BB13A
:10AFF00094F8710215F0F4FA012014F05FFE0123B9
:10B0000084F825302368002B3FF41EAF0021022076
:10B01000984719E7002584F8255015F06DFAFFF7D9
:10B0200019FE2368002B3FF40FAF29460420EFE7F9
:10B03000002B3FF409AF15F077FA2368002B3FF49B
:10B0400003AF00210520E3E72268002A3FF4FCAEAD
:10B05000002B3FF4F9AE002106209047F4E607F1FB
:10B060000C054FF0FF334FF0FF32284618F0CAFBB3
:10B07000FFF7A0FE284618F0C7FB57F8283C002B26
:10B080003FF4E2AE00210120C2E794F870327BB1B8
:10B09000012584F8855284F88452FFF74BFD38B1BE
:10B0A0000D4A057405738260FFF7EEFCFFF72AFD79
:10B0B00057F8283C002B3FF4C7AE00210A20A7E731
:10B0C000842F0020F80B002000700240882F002001
:10B0D000B82F0020A42F0020EC3100201CF000FF2E
:10B0E00015F00AFA14F042FDFFF7FEFCFFF762FECE
:10B0F0001CF0EFFE014814F009FEA5E699AC020031
:10B1000038B51A4D95F824405CBB05F134001DF0AC
:10B1100034F92046FFF71AFB2246E8610121272077
:10B1200000F0D6FC124814F0F1FD124B98421AD1EF
:10B130001CF0CFFEFFF73EFE044610B9012385F850
:10B1400024300D4B1B680BB1FFF7DCFC4FF0804344
:10B15000D3F83834DB0702D50020FFF761FD204625
:10B1600038BD0024FBE76FF00404F8E7842F0020CB
:10B1700099AC02000000AD0B740D0020074B93F852
:10B1800024203AB193F82530002B0CBF6FF0120049
:10B19000002070476FF01200704700BF842F00201E
:10B1A0000F4B93F8243010B50146B3B10478204614
:10B1B000FFF742FC10B96FF0150010BD44720B7917
:10B1C000837249884160230702D44B1E0B42F2D19F
:10B1D00020461CF00AFF0020EFE76FF01200ECE7BA
:10B1E000842F0020124B93F8242010B50146CAB1D9
:10B1F00093F82530B3B1FFF71FFC0446A8B1837A5A
:10B20000012B12D007D9023B012B07D96369A36137
:10B210000020E06010BD14F0F5FFF7E7084614F0D9
:10B2200065FFF3E76FF01200F4E76FF01500F1E748
:10B23000842F002038B50E4B93F82420054682B1A8
:10B2400093F825306BB1FFF7F7FB68B115F00804F0
:10B250000AD1284614F06CFF284615F013FA204650
:10B2600038BD6FF01200FBE76FF01500F8E700BF84
:10B27000842F002038B50C4B93F8242005460C464B
:10B2800062B193F825304BB1FFF7D6FB48B141B11D
:10B29000284614F033FF2070002038BD6FF01200F4
:10B2A000FBE76FF01500F8E7842F0020F8B5134F87
:10B2B00097F824300446BBB1FFF7BEFB0546B0B19A
:10B2C000230705D4204614F033FF204615F0DAF9A1
:10B2D0002E7A7EB997F8250001232B7218B12046EB
:10B2E00015F07EF93046F8BD6FF01200FBE76FF005
:10B2F0001500F8E76FF04400F5E700BF842F002049
:10B300000E4B93F8242010B5014672B193F8253006
:10B310005BB1FFF791FB044650B1037A5BB108467D
:10B3200015F032F90020207210BD6FF01200FBE71B
:10B330006FF01500F8E76FF04400F5E7842F002068
:10B340002DE9F043DFF8DC801C4698F8243085B006
:10B35000074689461646002B5DD098F82530002B0D
:10B3600059D003065AD5FFF767FB0546002855D08C
:10B37000037A002B52D04FF0FF334FF0FF3208F129
:10B38000340018F03FFAAB7F4BB108F1340018F0ED
:10B390003BFA6FF00A04204605B0BDE8F08316B909
:10B3A000EB7F03B1EE77AB7ABBB95EB1B8F80A3088
:10B3B0009E4207D26A68B6FBF2F302FB13630BB935
:10B3C0000123EB7714F026FF874206D014F012FF1A
:10B3D000154818F019FA0024DDE70123AB774FF088
:10B3E000000801A93846CDE90196CDF80C8014F08B
:10B3F000CFFC0E4B984207D085F81E800CB1C4F8E4
:10B4000000806FF0040402E00CB126604446064858
:10B4100018F0FAF9BFE76FF01204BCE76FF01504FB
:10B42000B9E700BF842F0020B82F00200000AD0B2B
:10B430002DE9F0411D46204B174693F824200E4677
:10B44000002A33D093F8253083B3030631D401B9F1
:10B450007FBBFFF7F1FA044658B3037A4BB34FF0C2
:10B46000FF3316484FF0FF3218F0CCF9E368BB42C7
:10B47000984628BFB84646B93FB905B12B600F487A
:10B4800018F0C2F90020BDE8F081A16942463046BB
:10B4900019F06CFCA3694344A361E368A3EB0803C0
:10B4A000E360002DEBD0C5F80080E8E76FF01200F4
:10B4B000E9E76FF01500E6E7842F0020B82F0020A1
:10B4C00070B51E4D95F82420034682B395F82520CB
:10B4D0006AB31B062ED4FFF7AFFA044650B3037AC3
:10B4E00043B34FF0FF334FF0FF3205F1340018F053
:10B4F00089F9E368B3B9012663692677A361637F9D
:10B5000083B1FFF717FB30B905F1340018F07CF96F
:10B510006FF00B0070BD067484600673FFF7B4FA19
:10B52000FFF7F0FA064818F06FF90020F2E76FF025
:10B530001200EFE76FF01500ECE700BF842F00204A
:10B54000B82F002008B5084B93F824302BB1FFF733
:10B5500073FA28B10160002008BD6FF01200FBE70C
:10B560006FF01500F8E700BF842F0020014B186032
:10B57000704700BF842F002008B5074B93F8243094
:10B5800023B1FFF759FA20B1406808BD6FF01200EF
:10B59000FBE76FF01500F8E7842F0020044A1368DA
:10B5A000C81A20F07F400344136016F077BB00BF39
:10B5B0001C3200202DE9F843860006F1804600F198
:10B5C000500406F58836A400A4B204F180444FF478
:10B5D0008037D6F84035DFF86C8021F07F4504F5E0
:10B5E00088348740D8F80495A3EB090323F07F4300
:10B5F00029F07F42012BC6F8402502D113201DF00F
:10B6000094F809F10202AB1A23F07F43B3F5000F5F
:10B6100088BF1546002323602368C8F8447325F0CB
:10B620007F43C6F84035D8F80435994506D0EB1A63
:10B63000023B23F07F43B3F5000F01D8BDE8F88348
:10B640002B46CFE700100140F8B50025104C2F46DF
:10B65000104B1E6805B1F8BDD4F80423D203FAD507
:10B66000D4F84021002AF6D0C4F84051D4F8402143
:10B670004FF48032C4F84823D4F84015012526B190
:10B680005A681F600020B047E2E71E60E3E700BF92
:10B69000001001401032002038B50F4C00254FF447
:10B6A0008033C4F80855C4F804330C4B4FF400320F
:10B6B000C3F8802101212A46112000F009FA112047
:10B6C00000F0D4F90123064AA3600220236013602E
:10B6D000FFF770F8284638BD0010014000E100E097
:10B6E00018320020134AB0F1FF3F14BF034613463F
:10B6F000013B002B1CDD9342A8BF13460E4AD2F833
:10B7000004050E4A1168401A10F4000F20F07F4221
:10B7100018BF002301321344094A0A481060002070
:10B720005060044A934294BFC9188918FFF742BF7A
:10B730000023E3E7FFFF7F00001001401C320020E0
:10B74000103200209DB502004FF02002EFF311836C
:10B7500082F31188BFF36F8F064AD2F80405064AB8
:10B760001268801A20F07F4083F31188BFF36F8F37
:10B77000704700BF001001401C320020014B1868C8
:10B78000704700BFE8030020F0B5082289B018F028
:10B7900055FACB6A03930B6B04934B6B05938B6B3E
:10B7A0000693CB6B079313466A460C460646002762
:10B7B00011461046CDE90177009718F04CF9314653
:10B7C0000546304618F047F9216B0391616B0491EF
:10B7D000A16B0591E16B0544CDE9061710461146B2
:10B7E00018F039F931460544304618F034F905446B
:10B7F000206A0090606A0190A06A0290A06B069097
:10B80000E06B07903046CDE90477039718F023F9F1
:10B810000544606A0090A06AD4F838C00190E06ADC
:10B820000290CDF810C0606BD4F83CC00390CDE915
:10B8300005C0206A0790304618F00DF90544E06A0B
:10B840000090206B0190606B0290206A0690A06AC5
:10B8500007903046CDE90477039718F025FA236B5B
:10B860000093636B0193A36B0293E36B0393636A8F
:10B870000693E36A07932D1A08233046CDE904772F
:10B8800018F012FA636B0093A36B0193E36B0293BE
:10B89000236A0393636A0493A36ACDE90537236B94
:10B8A00007932D1A0823304618F0FEF9A36B009376
:10B8B000E36BCDE90137636A0393A36A0493E36AF8
:10B8C000CDE90537636B07932D1A0823304618F02E
:10B8D000EBF92D1A10D40D4C35B90822314620460B
:10B8E00018F0B8F901280FD0082322463146304617
:10B8F00018F0DAF92D1AEFE7044A082331463046EA
:10B9000018F0A9F82D18F8D409B0F0BDA0930400E0
:10B910000449431E0F3013F8012F8A5C1A708342CA
:10B92000F9D1704711A90400F0B5264E07460C4620
:10B930000FCE8DB001AD0FC50FCE0FC596E8070035
:10B9400085E807003846002F38D0002C38D0381F43
:10B950002146024610344B780D781B0443EA0563F8
:10B96000CD782B438D78043143EA05238C4242F88D
:10B97000043FF0D1144C04218A07036916D1C3F3A4
:10B980000742A55C1A0EA25C42EA0562C3F30725D2
:10B99000DBB2655DE35C42EA054242EA03220CAD9C
:10B9A00021F003032B4453F82C3C534050F8042F50
:10B9B000013153402C290361DED101200DB0F0BDCF
:10B9C0002046FBE79C8F040011A904000A4A0B499A
:10B9D00093680968C3F880100949D8674B6843F039
:10B9E00080534B60002383F31188BFF36F8F9368FC
:10B9F000D3F88000704700BFCC56002090A504000B
:10BA000000ED00E00F498A684FF038001044EFF372
:10BA1000098C80E8F01F202080F31188BFF36F8F1E
:10BA2000094F4FF000668A6A8A603E60D06F00233B
:10BA3000D36780F3118802F1380090E8F01F8CF38F
:10BA400009887047CC56002004ED00E01EF0040F7A
:10BA50000CBFEFF30880EFF30980816911F8021C35
:10BA60000229FFD001B519F04AF801BD43B2002BFD
:10BA700008DB012200F01F0002FA00F05B09024A15
:10BA800042F82300704700BF00E100E043B2002B02
:10BA90000DDB01225B0900F01F0002FA00F02033E9
:10BAA000034A42F82300BFF34F8FBFF36F8F7047F5
:10BAB00000E100E0054B420900F01F0053F822208E
:10BAC000012303FA00F01040704700BF00E100E0DE
:10BAD00043B2002BA8BF03F1604301F10101B8BFDD
